:020000040800F2
:10000000B85B0124E9020008A75E00086B580008ED
:10001000A55E0008F51900088D9800080000000092
:1000200000000000000000000000000067630008FE
:10003000711A00080000000023600008096600082B
:100040000303000803030008030300080303000878
:100050000303000803030008030300080303000868
:1000600003030008911A00080303000803030008B3
:100070000303000803030008030300080303000848
:100080000303000803030008030300080303000838
:100090000303000803030008030300080303000828
:1000A0000303000803030008030300080303000818
:1000B0000303000803030008030300080303000808
:1000C00003030008030300080303000803030008F8
:1000D0000303000871790008030300080303000804
:1000E000731A00080303000800000000030300085F
:1000F00003030008030300080303000803030008C8
:1001000003030008030300080303000803030008B7
:1001100003030008030300080303000803030008A7
:100120000303000803030008030300080303000897
:100130000303000803030008030300080303000887
:1001400000000000000000000000000000000000AF
:100150000303000803030008030300080303000867
:100160000303000803030008030300080303000857
:1001700003030008A95E0008030300080000000054
:100180000303000803030008030300080303000837
:100190000303000803030008030300080303000827
:1001A0000303000803030008030300080000000025
:1001B0000303000803030008030300080303000807
:1001C0000303000803030008000000000000000013
:1001D0000000000000000000030300080000000011
:1001E000000000000000000000000000000000000F
:1001F00000000000000000000303000803030008E3
:1002000003030008030300080000000003030008C4
:1002100003030008030300080303000803030008A6
:1002200003030008000000000303000800000000B2
:100230000303000803030008000000000303000894
:100240000303000803030008030300080303000876
:100250000303000803030008030300080303000866
:100260000303000803030008030300080303000856
:100270000303000803030008030300080000000054
:100280000303000803030008030300080303000836
:100290000000000003030008030300080000000042
:1002A0000000000003030008030300080303000824
:1002B0000303000803030008030300080303000806
:1002C000030300080303000803030008DFF80CD051
:1002D00000F02AFB00480047A59A0008B85B0124FB
:1002E00040BA704740BA7047064880470648004702
:1002F000FEE7FEE7FEE7FEE7FEE7FEE7FEE7FEE7D6
:10030000FEE7FEE7A9660008CD0200082DE9F05FD0
:100310000546002092469B46884606468146402474
:100320001BE0284641464746224600F047FA53461E
:100330005A46C01A914110D311461846224600F081
:100340002EFA2D1A67EB01084F46224601200021A4
:1003500000F025FA17EB00094E41201EA4F101041C
:10036000DFDC484631462A464346BDE8F09F40EA76
:1003700001039B0703D009E008C9121F08C0042A23
:10038000FAD203E011F8013B00F8013B521EF9D20A
:100390007047D2B201E000F8012B491EFBD2704732
:1003A0000022F6E710B513460A4604461946FFF741
:1003B000F0FF204610BD2DE9FE4F804681EA030084
:1003C000C00F0C46009021F0004123F00045B8EB2F
:1003D0000200A94105D24046214690461C460B46E4
:1003E000024623F00040104347D0270DC7F30A0010
:1003F000C3F30A510290401A019040286BDAC3F30C
:10040000130040F4801B0098924620B10023D2EBE9
:10041000030A63EB0B0B01985946C0F140025046AA
:1004200000F0BDF906460D4650465946019A00F0C7
:10043000D5F910EB08006141002487EA115284EAE3
:10044000E7731A4340D0009A62B3019A012A4FEA37
:10045000075215DC001B61EB02014FF0004202EA7B
:100460000752CDE90042001C41F5801132462B466F
:1004700000F00CFA03B0BDE8F08F40462146F9E7E2
:10048000001B61EB0201001C41F5801300185B4169
:100490002018A2F5001747EB030140EAD570B61902
:1004A0006D4111E06D084FEA360645EAC0754FEA26
:1004B0000752001B61EB0201001C41F58011490845
:1004C0004FEA30000019514132462B4603B0BDE8D7
:1004D000F04F00F0CCB90098012240000023D0EB8F
:1004E000020263EBE073009821464FEAE074B8EB38
:1004F000000061EB0401E9E783F000435BE781F072
:10050000004158E72DE9FE4F81EA030404F000445E
:1005100021F0004100944FF0000B23F0004350EA1B
:1005200001045ED052EA03045BD0C3F30A54C1F362
:100530000A552C44A4F2F3340194A0FB0254C1F3F5
:10054000130141F48011C3F3130343F4801301FB3F
:10055000024400FB034E840A970A44EA815447EAA6
:100560008357A4FB076802958D0A05FB07854FEAB0
:10057000932C04FB0C542705029D4FEA065847EACA
:100580001637B5EB08056EEB070C870E920E47EA9F
:10059000811742EA8312A7FB0201B6EB0B0164EB61
:1005A00000042B0D43EA0C335E1844EB1C50DA4672
:1005B0005146E7FB0201C5F313044FEA0B3343EA4C
:1005C00014534FEA0432019C43EA0603A4F10C04DD
:1005D0000294009CCDE900B400F058F903B0BDE8E6
:1005E000F08F00200146F9E72DE9F04D81EA030480
:1005F00004F0004B21F0004514464FF0000A23F0B0
:10060000004150EA050220D054EA01021DD0C5F392
:100610000A570246C5F31303C1F31300C1F30A5688
:1006200040F4801543F48013A7EB0608101BD64650
:1006300008F2FD3873EB050002D308F1010801E070
:1006400092185B41B8F1000F03DA00200146BDE8C3
:10065000F08D00204FF48011064684460EE0171BF3
:1006600073EB050705D3121B63EB050306434CEA46
:10067000010C49084FEA300092185B4150EA01072B
:10068000EDD152EA030012D082EA040083EA0501A8
:10069000084305D0101BAB4106D20122002306E01F
:1006A00000224FF0004302E06FF0010253101AEBFA
:1006B00006004CEB085110EB0A0041EB0B01BDE8C2
:1006C000F04D00F0D4B80EB5C10F80EAE0700844D8
:1006D000CA07002140F233438DE80E000A460B465C
:1006E00000F0D4F803B000BD0EB540F233410291E2
:1006F0000021CDE900110A460B4600F0C7F803B00F
:1007000000BD70B5C1F30A5201F000450024C1F3E9
:10071000130140F2FF3341F480119A4201DA0020C4
:1007200070BD40F233439A42A2F2334203DC52429C
:1007300000F044F800E090402C43F1D0404270BDFE
:1007400000F0004230F000400AD0C10D01F56071A8
:10075000C0F3160042EA0151C20840071143704736
:1007600000200146704701F0004330B421F0004101
:1007700050EA010206D00A0DA2F56072C1F313011E
:10078000002A02DC30BC00207047440F44EAC10458
:10079000C100E01830BC00EBC25000F031B8202A94
:1007A00004DB203A00FA02F1002070479140C2F1C8
:1007B000200320FA03F3194390407047202A04DBFA
:1007C000203A21FA02F00021704721FA02F3D040CA
:1007D000C2F120029140084319467047202A06DBE7
:1007E000CB17203A41FA02F043EAE07306E041FAFF
:1007F00002F3D040C2F120029140084319467047ED
:100800000029A8BF7047401C490008BF20F0010024
:10081000704710B4B0FA80FC00FA0CF050EA010402
:1008200004BF10BC704749B1CCF1200421FA04F494
:1008300011FA0CF118BF012121430843A3EB0C016D
:10084000CB1D4FEA00614FEA102042BF002010BCD0
:10085000704700EBC35010440029A4BF10BC704780
:10086000401C490008BF20F0010010BC704710B5C3
:10087000141E73F1000408DA401C41F100019218C3
:100880005B411A4301D120F0010010BD2DE9F04D6C
:1008900092469B4611B1B1FA81F202E0B0FA80F2C1
:1008A00020329046FFF77BFF04460F4640EA0A00DD
:1008B00041EA0B0153465A46084313D0114653EA06
:1008C000010019D0C8F140025046FFF777FF0546F6
:1008D0000E46504659464246FFF761FF084305D091
:1008E000012004E020463946BDE8F08D0020054394
:1008F00046EAE0762C4337430A986305E40AA0EB06
:1009000008000022FD0A44EA47540A3002D50020BC
:100910000146E9E7010510196941DDE908450019BB
:100920006941BDE8F04DA2E7064C074D06E0E068DE
:1009300040F0010394E8070098471034AC42F6D326
:10094000FFF7C8FC64D7010884D70108B0B50029B7
:1009500021D0002302EB430C32F813E0BCF802C0B4
:1009600002332EF0030E2CF0030C50F80E4050F81A
:100970000C508B4240F80E5000EB0E0540F80C4036
:1009800000EB0C04D5F804C0D4F804E0C5F804E08A
:10099000C4F804C0DED3B0BD2DE9F041048816468A
:1009A0000746012A98460D460CD1E4B3281D21467E
:1009B00090ED000AB1EE400A013980ED000A00F125
:1009C0000800F5D1FF2C0CDDB4F5806F10DBB4F519
:1009D000805F22D0B4F5006F11D0B4F5806F17D0CE
:1009E00021E03F2C10DC102C12D0202C07D01AE074
:1009F000B4F5807F03D0B4F5007F0ED013E0384605
:100A0000294600F0F7F80EE0402C06D0802C0AD1E1
:100A10003846294600F02EF805E07A68012328467A
:100A2000214600F01DFBB8F1000F04D0B98928461B
:100A3000BA68FFF78BFF012E1AD100EE104A002C86
:100A4000B8EE400A14D0B7EE001A81EE000A00BFDB
:100A500095ED001A95ED012A20EE011A013C20EED9
:100A6000422A85ED001A85ED012A05F10805EFD12E
:100A7000BDE8F0812DE9F0472DED068B0388804617
:100A80000020D8F80420B0EBD30F084601EB830A0E
:100A90004FEA530900F09E80D9080AEB890C00EB5D
:100AA000890E4C42002700BFC3190AEB070593EDDE
:100AB000000A95ED004A30EE048A0EEB07010CEBBC
:100AC000070630EE440A93ED011A93ED022A93EDE6
:100AD000033A95ED015A95ED026A95ED037AD1ED51
:100AE000000AD1ED011AD1ED022AD1ED033AD6ED7B
:100AF000004AD6ED015AD6ED026AD6ED037A31EE00
:100B0000059A83ED008A32EE06AA013433EE078A95
:100B100083ED019A30EEA49A83ED02AA31EEA5AAE4
:100B200083ED038A32EEA68A33EEA74A81ED009A5E
:100B300031EE451A81ED01AA81ED028A02EB07032D
:100B400081ED034A34EEE05AD3ED000A35EEE14A76
:100B500007F1100761EE201AD3ED014A21EE241AA5
:100B600040EE641A65EE245A64EE244A00EE201A20
:100B700044EE605A45EE204A32EE460A85ED001AF0
:100B800033EE471AC5ED011A36EEE22AC6ED005AD9
:100B900037EEE33AC6ED014A93ED034A93ED026A5C
:100BA00021EE045A21EE061A22EE047A63EE040ABC
:100BB00000EE065A00EE441A03EE467A42EE060AAA
:100BC00085ED025A85ED031A86ED027AC6ED030A19
:100BD0007FF46AAF0223494600F042FAD8F80420B5
:100BE000022350464946BDEC068BBDE8F04700F0B5
:100BF00037BA00002DE9F04F81B02DED0C8B90B08D
:100C00008446008891ED000A420801EB820404EB5F
:100C1000820591ED011A95ED002A95ED013A30EE2D
:100C2000024A0F4630EE420A05EB820631EE032AF5
:100C3000910031EE431A0F9194ED003A94ED015A70
:100C400030EE056A810871EE430A009174EE432A82
:100C50006FF0010172EE453A01EB900A30EE450A61
:100C6000D00034EE034A6FF0070832EE052A0E90EA
:100C700031EE031A02EB420196ED007AD6ED011A2D
:100C800036EE616A08EB021070EE870A4FEA8109BE
:100C900072EEC72A0C9073EEE13A059730EE210A06
:100CA00008EB810334EE073A6FF0030132EE212A9C
:100CB000029431EE471A01EBC20E87ED003A4FF075
:100CC000000B87ED012A002784ED006AA7EB5A0A82
:100CD000C4ED010A01EB8204C5ED002A0020C5ED38
:100CE000013A86ED000A86ED011ADCF8041003953E
:100CF0000196CDF810C006910D90C1E0C518CDF851
:100D0000249000EB0409CDF81CA099ED006A95ED44
:100D1000017A76EE070A00EB0E01D1ED002AF246C9
:100D2000DDF830E070EEA23A089400EB0E0436EEE7
:100D3000476AD4ED015A73EEA53A0F9859ED011A9E
:100D4000D5ED004A71EEA46A083051ED017A94EDB8
:100D5000008AC9ED003A71EEE41A51ED013A76EEDF
:100D6000A33AAEF1080E94ED007A32EEE59AAAF1BC
:100D7000080A33EE877A083B76EE673A31EE89BA95
:100D800009ED017A33EE887ADDF82490D6ED023A47
:100D9000D6ED034A25EE24AA0F9025EE235A0E988D
:100DA00027EE24CA08302BEE24DA0E9004EE23AA94
:100DB0000D9804EE645A183030EEE24A0D9076EE4B
:100DC000E70A82ED02AA0BEE63CA82ED035A07EE30
:100DD00023DA09F1080934EE654A70EEC80A81ED9C
:100DE00000CA01ED01DA97ED045A97ED057A63EE3A
:100DF000072A0B9F23EE053A083760EE873A64EE28
:100E0000074A42EE052A02EE473A54EE453A40EED2
:100E1000C54ACCED022A38EE674A8CED033AC5ED9F
:100E2000013A39EE615AC5ED004A9BED062A21EEE2
:100E3000027A34EE464A9BED073A21EE031ADDF8BA
:100E400028B000EE437ACDF830E024EE036AD646AF
:100E500025EE033ADDF81CA000EE021A0BF1100B90
:100E600005EE426A0AF1010A04EE023A88ED021A1E
:100E700088ED037A84ED016A84ED003A089C083C11
:100E80000598BAF1000F0E9A00EB070100EB020C77
:100E90000F9A91ED020A9CED022A30EE026A02449A
:100EA00030EE420A00EB090891ED031A9CED033A7B
:100EB00092ED032A31EE037A069D31EE431A0B9729
:100EC00030EE023ACDF828B0D2ED020AD8ED032A6E
:100ED00033EE624A05EB070636EE603A05EB0B0788
:100EE00036EE206AD8ED021A31EE605A36EE216AEB
:100EF00077EE423A30EE420A81ED026A31EE201A74
:100F000092ED036A37EE066A98ED037A35EE215AC0
:100F100036EE076A33EE612A33EEE23A30EE220A09
:100F200081ED036A31EE611A0D9905EB010B7FF437
:100F3000E5AE96ED026A96ED037A65EE070A009D2E
:100F400025EE065A0423294644EE060A04EE475AC3
:100F5000C2ED020A82ED035A97ED044A97ED055A55
:100F600023EE056A069A23EE043A02EE046A02EEC4
:100F7000453A8CED026A8CED033A9BED062A9BED17
:100F8000073A21EE034A21EE021A00EE024A00EE71
:100F9000431A88ED024A88ED031A00F061F8049CB8
:100FA000042362682946029800F05AF86268042314
:100FB0000398294600F054F86268042301982946F2
:100FC00010B0BDEC0C8B01B0BDE8F04F00F048B89C
:100FD0009FED201AB5EE002A00EE012A9FED1E1AA1
:100FE000BDEEC20AB5EEC02AF1EE10FA10EE100AFC
:100FF000B8BF013800EE100A0020B8EEC00A32EE89
:10100000400A9FED162A20EE010ABDEEC01A11EE2D
:10101000101A30EE021AB0EB512F18BF002102EE69
:10102000101A4DF2604000FE010AC0F60000B8EE52
:10103000422A00EB810090ED011A30EE420AB7EE31
:10104000002A32EE402A20EE010A90ED001A02EE4C
:10105000010A704783F9223E00000044000000C4EA
:101060002DE9F04F81B02DED108B96B0CDE9033214
:10107000019004309FED020A8C460290149101E029
:10108000F304353F4FEADC084FEAC80ACDF81C806C
:10109000AAEBDC00C00008EB480E139008EB8802B6
:1010A0004FEACC074FEA0E14D000029A4FEA4813D9
:1010B00015904FEA08160D934FEACE054FF0000B3E
:1010C000CDE90B5602EB0309159812ED011A19ED43
:1010D000013A02EB0A0831EE035A02EB000E0B98BC
:1010E00018ED016A31EE431A91191EED013A1319F8
:1010F00076EE031A564636EE433A02EB000A139890
:1011000051ED012A13ED016A104472EE863A5AED50
:10111000014A32EEC66AE34450ED012A74EEA25A47
:101120003D4674EEE22A75EE634A35EE235A71EEBF
:10113000A53A92ED002A99ED004A98ED007ADEED8D
:10114000000AD1ED006A71EEE51A75EE235A35EE0C
:10115000635A72EE043A32EE442A37EE204A37EEF2
:10116000607AD3ED000A76EEA07A76EEE00ADAED48
:10117000006A90ED008A36EE889A42ED015A76EECA
:10118000C86A09ED015A33EEA78A34EE09AA73EE54
:10119000E73A34EE494A78EE0A7A38EE4A8A33EE74
:1011A00062AA34EE849AC2ED007A34EEC44A89ED24
:1011B000008A73EEE14A3A4471EEA31A01ED019AF6
:1011C00033EE223A6AEE002AC1ED004A77EE663A23
:1011D00003ED014A37EE267AC3ED001A71EE626A1A
:1011E000149931EE221A0D9B23EE003A8B4563EEE3
:1011F000802A27EE007A76EE433A36EE033A32EE54
:10120000625A30EE876A32EE222A30EEC77A71EEE9
:10121000060A32EE434A31EE461A33EE022A48ED10
:10122000010A36EE873A88ED004A00ED011A35EEE4
:10123000631A80ED002A36EEC72A0EED013A33EE2E
:10124000853A8EED001A0AED012A8AED003AB2467F
:101250000C9EFFF437AFBCF1400FC0F08B810EA89D
:1012600080E890140398002480B2019E0125069026
:101270000798C0EBC000C000059000BF069804446A
:10128000049B03EBC4010A9491ED000A03EB0412E2
:101290008DED130A92ED000A04EB44028DED120A63
:1012A00003EB441108964FEAC20A099503EBC2000A
:1012B00091ED004A04EB84014FEA021B03EB02129A
:1012C00090ED003AC80003EBC10192ED006AC4EB57
:1012D000C4024FEAC40C91ED005AD10003EBC202E4
:1012E00092ED007A0CF104024FEA041E1A44D2ED8A
:1012F000000A0EF1040204301A441844D2ED001A18
:101300000AF10402D0ED004A0BF104004FEA44193F
:101310001A441844D2ED002A09F10402D0ED005A13
:10132000081D1A441844D2ED003AD0ED006AB446C4
:101330002B460D9D9FED921ADDE90B76DDF81480AA
:1013400010980CEB05010CEB00021598DCED027A0D
:1013500091ED028A60440E9C37EE88BA0CEB060BC6
:1013600077EEC87A0CEB040992ED028A90ED029AAE
:1013700038EE09CA0CEB070E38EE49AA0CEB080A46
:101380009BED028A99ED029A38EE09DA38EE499A15
:101390009EED028A9AED02EA38EE0EFA7BEE0D8A95
:1013A00038EE4EEA7CEE0F9A3BEE4DBA3CEE4FCA59
:1013B00038EEA98A38EEE9DA9CED03FAD1ED038A1A
:1013C0007FEE289A3FEE68FAD2ED038AD0ED03AAA9
:1013D00078EEAABA78EEEA8ADBED03AAD9ED03CA61
:1013E0007AEEACDA7AEEECAADEED03CADAED03EAC5
:1013F0007CEEAEFA8CED028A7CEEEECA79EEEDEA76
:101400003BEEEF0A79EEAD9A7BEEAFBA7BEE00DAF7
:101410003BEE400A39EEEBBA9DED122A79EEAB9A1B
:101420007EEECCBA63EE8BFA3CEE2ECACCED039A7C
:1014300024EE0BBA62EE2DEA44EE0DFA03EECDBABD
:1014400022EE2BDA41EEABEAC1ED02FA66EE00BA0B
:1014500081ED03BA01EEEDDA66EE0CDACBED02EACD
:1014600045EE8CBA3AEE4ECA8BED03DA45EEC0DAA1
:101470003AEE0E0AC9ED02BA2CEE01AA38EEECCA19
:10148000C9ED03DA38EEACEA77EECA8A77EE8A7AEB
:1014900020EE010A2CEE01AA2EEE01CA39EE40EA36
:1014A00039EE000A3FEE4A9A7AEE8CCA3FEE0AAA5B
:1014B0003AEECCCA37EEACFA77EEEC7A78EE8CAA3C
:1014C00038EECCCA7AEE408A30EE0A0A39EE4EAADD
:1014D0009DED132A26EE808A27EE000A60EEA8CA48
:1014E0003EEE099A22EE28EA07EE278A24EE8ABA0F
:1014F00006EEE70A65EE0A7A42EE0FCA00EECFEA80
:1015000005EE2ABA44EEEA7AC2ED02CA22EE89AAB0
:1015100082ED03EA23EE099A8AED028A8AED030A34
:1015200080ED02BA03EE0CAAC0ED037A02EECC9A6B
:1015300011980344149883420F9884448EED02AAB4
:101540008EED039AFFF4FCAE099D01350798089EC5
:10155000854206F108060A9CFFF490AE11983F28D8
:1015600003984FEAC000DDF81CC09FED050A039008
:101570003FF688AD16B0BDEC108B01B0BDE8F08F22
:10158000F304353FC8B14FF4007101804FF480611E
:1015900001824FF4E071818144F6E4114DF2E002E2
:1015A000C0F60101C0F60002C0E9011245F6E411DF
:1015B000C0F601014161002000E0FF2040B2704709
:1015C000C8B14FF4806101804FF4006101824FF493
:1015D000E16181814DF6644149F67872C0F60001FF
:1015E000C0F60002C0E9011246F6E411C0F601019E
:1015F0004161002000E0FF2040B27047B8B1802177
:1016000001804FF480710182D02181814FF66441C5
:101610004AF68852C0F60001C0F60002C0E9011285
:1016200048F6E411C0F601014161002000E0FF200E
:1016300040B27047B0B110210180202101821421F5
:10164000818140F264014AF62872C0F60101C0F6B9
:101650000002C0E9011248F6E451C0F601014161FF
:10166000002000E0FF2040B27047C8B14FF4006195
:1016700001804FF4805101824FF46E61818140F20C
:10168000E4014AF65072C0F60101C0F60002C0E95A
:10169000011248F66461C0F601014161002000E0DA
:1016A000FF2040B27047C8B14FF4807101804FF401
:1016B000007101824FF4DC71818144F2E4014CF647
:1016C0001052C0F60101C0F60002C0E901124CF64A
:1016D0006461C0F601014161002000E0FF2040B2DA
:1016E0007047B0B1202101804021018230218181E9
:1016F00044F6E4014DF28002C0F60101C0F600029A
:10170000C0E901124DF26461C0F60101416100209F
:1017100000E0FF2040B27047F0B581B00446008A77
:10172000002B4FEA5000154620800F460ED0204671
:1017300039462A461E4600F057F80123204629461E
:10174000324601B0BDE8F040FFF726B90022012380
:1017500020463946FFF720F9204639462A4601B08F
:10176000BDE8F04000F096B8B1F5007F0DDBB1F5B3
:10177000006F16DAB1F5007F1ED0B1F5806F2AD167
:1017800041F28551C0F600010847202919D04029AF
:1017900024D0B1F5807F1ED141F2FD51C0F6000189
:1017A0000847B1F5805F11D0B1F5006F13D141F258
:1017B000C151C0F60001084741F2A761C0F600011F
:1017C000084741F23561C0F60001084741F26B61FC
:1017D000C0F6000108474FF0FF30704741F2E36167
:1017E000C0F600010847000091ED000A91ED011AD2
:1017F00030EE012A038830EE411AB6EE000AD0F826
:1018000014C0581E22EE002A21EE001A82ED002A92
:1018100082ED011A08BF704780B501EBC00E01F1DF
:1018200008000CF108010832C3F1010C0EF10403A9
:10183000BDE8804013ED011A93ED002A90ED003AC7
:1018400090ED014A33EE417A083031EE031A1CF173
:10185000010C34EE423AA3F1080391ED005A91EDE8
:10186000016A32EE042A01F1080107EE451A07EE7B
:10187000063A02EE461A05EE423A21EE001A23EE2F
:10188000002A82ED001A82ED012A02F10802D1D16C
:101890007047000010B591ED000A91ED011A30EE8D
:1018A000000AB0F800E031EE011A406901EBCE0405
:1018B00000F1080C30EE012A083130EE411AB6EE84
:1018C000000A02F10803201F22EE002A21EE001A6E
:1018D00082ED002A82ED011ACEF1010210ED011A0B
:1018E00090ED002A91ED003A91ED014A31EE437AF4
:1018F000083131EE031A013234EE423AA0F1080009
:101900009CED005A9CED016A32EE042A0CF1080CA1
:1019100007EE051A07EE063A02EE061A05EE423AFF
:1019200021EE001A23EE002A83ED001A83ED012A2E
:1019300003F10803D2D110BD30B401F0010502F06B
:101940000304002141EA052103F0020241EA841167
:1019500003F0010341EA021141EA430130BC41F4C2
:10196000005100F03BB8000070B59FED161B044617
:1019700053EC112B51EC100BFEF736FE9FED131BB1
:1019800053EC112BFEF7BEFD9FED121B53EC112BF8
:10199000FEF711FDFEF7B5FEC0F30D05C0F38D3661
:1019A00020464FF4045100F019F845F480412046D8
:1019B00000F014F846F480412046BDE8704000F085
:1019C0000DB800000000000084D77741000000003F
:1019D0000000B041000000000000E03F08B50A0A26
:1019E00001238DF8002002228DF80110694603F0D2
:1019F000A3F808BDFEE704284FF000007047002060
:101A00007047000010B505490022054806F0C8F9E6
:101A10000449034806F0B6F9002010BD8C480124A3
:101A2000B03B01248C40012410B50146034806F068
:101A3000A9F9024806F076F9002010BDB03B012458
:101A4000002070470A4610B50849D1F8BC12D1F8F9
:101A50001412002901D0012010BD0146034806F0F0
:101A60009FF9BDE81040014806F032BAB03B0124AE
:101A700070474FF4006010B500F0A2FC4FF48050A6
:101A800000F09EFCBDE810404FF4005000F098BC00
:101A9000082000F095BC72B6FEE70000F0B5B3F583
:101AA000804F05D06FF0704140F822100020F0BD4B
:101AB00091E838008F898E6950F822102401334351
:101AC000054E44EA05242343314043EA07430B43D0
:101AD00040F82230EAE700000000F0CFF0B50A68D5
:101AE00050F8223023F0010340F822308C68082C93
:101AF0002CD000264A68D1E903CE22434CEA060CDA
:101B000001F1140342EA0C0242EA0E0293E8F85093
:101B10001A4322430C682A43D1E90C35324350F86A
:101B200024603A4342EA0C02DFF840C042EA0E0267
:101B30008F6B13431D432F4326EA0C063E4340F8A8
:101B400024600A6BB2F5801F02D007E04026D1E77F
:101B50000A684AB1026842F4801202600A681AB147
:101B60000268496B0A4302600020F0BD7FFB3F0022
:101B7000F0B58C6800EB8202D1E90036B1F80CE0D8
:101B80004FEA042C134C0D8A43EA06130E7D6701BD
:101B90004CEA0E4C43EA0C0304EB05552B438D69CC
:101BA00007EB0666576833432B4307F040452B434A
:101BB00053600268D2020BD5098A4268436804EB7D
:101BC000015122F47002114323F470030B4343606C
:101BD0000020F0BD0000F0FF50F8212022F48052D8
:101BE00040F821200020704770B50B480168001DA7
:101BF0000568001D0068084400280CD0074C082226
:101C0000A11C03F037FF04F112012846BDE8704023
:101C1000042203F02FBF70BD00E8F11F680000240C
:101C20002DE9F84F044600F0F7FC00903CB194F821
:101C30003500022806D0802161650020E4E0012003
:101C4000BDE8F88FC74DC74EC649183520683036F5
:101C5000DFF81483DFF814938842DFF814A3DFF869
:101C600014B32ED0A8422CD0B0422AD0404528D060
:101C7000484526D0504524D0584522D0BD4A183278
:101C800090421ED0BC4A90421BD0BB4A18329042B0
:101C900017D0B94A3032904213D0B74A48329042F6
:101CA0000FD0B54A603290420BD0B34A783290429E
:101CB00007D0B14A9032904203D0AF4AA832904246
:101CC00009D1026822F01E0202602068426922F0F7
:101CD0008002426103E0026822F00E02026027687F
:101CE0008F4238464DD0A8424BD0B04249D04045F3
:101CF00047D0484545D0504543D0584541D09D4AEE
:101D0000183290423DD09C4A90423AD09A4A1832BA
:101D1000904236D0984A3032904232D0964A483279
:101D200090422ED0944A603290422AD0924A783221
:101D3000904226D0904A9032904222D08E4AA832C9
:101D400090421ED08D4A90421BD08C4A1432904251
:101D500017D08A4A2832904213D0884A3C329042A7
:101D60000FD0864A503290420BD0844A643290425F
:101D700007D0824A7832904203D0804A8C32974210
:101D800004D1206E026822F48072026075492068D6
:101D9000884228D0A84226D0B04224D0404522D044
:101DA000484520D050451ED058451CD071491831A7
:101DB000884218D07049884215D06F49183188423E
:101DC00011D06D49303188420DD06B49483188427D
:101DD00009D069496031884205D067497831884225
:101DE00001D065499031016821F0010101600EE0E8
:101DF00000F012FC0099401A052808D920226265DB
:101E00000321002084F8351084F8340017E738687F
:101E1000C007EDD1534A0121206890422ED0A8423C
:101E20002CD0B0422AD0404528D0484526D0504535
:101E300024D0584522D04F4B183398421ED04E4BD9
:101E400098421BD04C4B1833984217D04A4B303332
:101E5000984213D0484B483398420FD0464B6033DA
:101E600098420BD0444B7833984207D0424B903382
:101E7000984203D0404BA833984208D194F85C7044
:101E80003F23A06D07F01F07BB40836007E094F875
:101E90005C30A06D03F01F0301FA03F34360206878
:101EA00090424DD0A8424BD0B04249D0404547D097
:101EB000484545D0504543D0584541D02D4A183269
:101EC00090423DD02C4A90423AD02B4A1832904250
:101ED00036D0294A3032904232D0274A4832904296
:101EE0002ED0254A603290422AD0234A783290423E
:101EF00026D0214A9032904222D01F4AA8329042E6
:101F00001ED01E4A90421BD01C4A1432904217D059
:101F10001A4A2832904213D0184A3C3290420FD0CD
:101F2000164A503290420BD0144A6432904207D085
:101F3000124A7832904203D0104A8C3290420BD130
:101F4000D4E919024260E06E30B1026822F4807276
:101F50000260D4E91C024260002084F8351084F845
:101F600034006DE61000024058000240700002404C
:101F700088000240A00002401004024008540258A9
:101F80002DE9F05F28B190F83510022904D08021A6
:101F900041650120BDE8F09F904C904B0168183CD2
:101FA00018338E4ADFF83C92A1428D4CDFF838E2BC
:101FB0008E4FDFF83CB2DFF83CA28F4D8F4E31D010
:101FC00091422FD099422DD0A1422BD0494529D002
:101FD000714527D0B94225D0DFF810C20CF1180C9A
:101FE00061451FD0DFF808C2ACF1600C614519D023
:101FF000DFF8FCC1ACF1480C614513D0DFF8F0C14B
:10200000ACF1300C61450DD0DFF8E4C1ACF1180C37
:10201000614507D0594505D0514503D0A94201D0AB
:10202000B1422CD1DFF8B4C14FF0040880F83580FC
:10203000ACF1180C61451DD091421BD0994219D0CA
:10204000A14217D0494515D0714513D0B94211D0DE
:102050006648183081420DD065486038814209D009
:1020600063484838814205D061483038814201D008
:102070005F481838086820F001000860ABE0D1F82C
:1020800000C02CF00E08DFF854C1C1F80080ACF19C
:10209000180C0168614527D0914225D0994223D080
:1020A000A14221D049451FD071451DD0B9421BD056
:1020B000DFF838C10CF1180C614515D0DFF830C1DC
:1020C000ACF1600C61450FD0DFF824C1ACF1480CD5
:1020D000614509D0DFF818C1ACF1300C614503D07F
:1020E000DFF80CC1ACF1180CD1F800C02CF0010CD9
:1020F000C1F800C0DFF8E4804FF0010C0168A8F1DE
:102100001808414546D0914244D0994242D0A1425C
:1021100040D049453ED071453CD0B9423AD0334ACF
:102120001832914236D0324A603A914232D0304A27
:10213000483A91422ED02E4A303A91422AD02C4A27
:10214000183A914226D0594524D0514522D0A9426F
:1021500020D0B1421ED02A4A91421BD0284A1432C4
:10216000914217D0264A2832914213D0244A3C3259
:1021700091420FD0224A503291420BD0204A643211
:10218000914207D01E4A7832914203D01C4A8C32C9
:10219000914218D1016E0A6822F480720A6090F8A8
:1021A0005C20816D02F01F020CFA02F24A60D0E955
:1021B00019124A60C16E31B10A6822F480720A6055
:1021C000D0E91C124A600022016D80F835C080F809
:1021D000342001B188470020DCE6000028000240DE
:1021E000580002407000024088000240A0000240F7
:1021F0007004024088040240A0040240B804024077
:102200000854025870B5044600F006FA0546601CF2
:1022100002D004480078044400F0FEF9401BA042BC
:10222000FAD370BD1C000024F0B5B5B014212EA85F
:10223000FEF7B6F82248016800293FD1012101606C
:10224000B8216846FEF7ACF8002012904FF080717C
:102250000446CDE90010684601F02CFA08B1FFF7FA
:102260001AFC1848016841F4805101600068022599
:1022700030AA00F4805033904CF2B370CDE92E05B3
:10228000032611480C2782E8D0002EA900F0A4F8FC
:1022900009213094E801CDE93161CDE92E050B48E3
:1022A0002EA900F099F830AA4FF68070CDE92E05DE
:1022B00007482EA982E8D00000F08EF835B0F0BDB6
:1022C00014000024D4440258000C0258000802589C
:1022D000001002582DE9F041344CB0F5006F34493C
:1022E0004FF48063B2EE040A4FF000020ED0B0F556
:1022F000805F33D0D900884206D12E4800F07AF9A9
:10230000002801D101202081BDE8F081E0689842D9
:10231000FADA01EB8001A280274D4FF0C04391ED26
:10232000001A00BFB3F900100746B4F9042000EE0C
:10233000901A05EB0236F8EEE00A06EB8006521C16
:1023400012B261EE200A082A60EE800AC6ED000A89
:10235000A280E7DBE180781CE060D5E72069984245
:10236000D2DA01EB8001A280144D4FF0C84391ED09
:10237000001A00BFB3F900100746B4F9042000EEBC
:10238000901A05EB0236F8EEE00A06EB8006521CC6
:1023900012B261EE200A082A60EE800AC6ED000A39
:1023A000A280E7DBE180781C2061ADE7000000241B
:1023B000140B012400080258140B0024148B002471
:1023C0004FF0B04110B5D1F88820024203D0C1F8D7
:1023D0008800FFF77FFF10BD2DE9F84F03247A4DE9
:1023E00000234FF001094FF0B04B4FF00F0AE4E02B
:1023F00009FA03F6324078D00F7907F00307012F6E
:1024000001D0022F1AD187684FEA430ED1F80CC0D1
:1024100004FA0EF827EA08070CFA0EFC4CEA070C3F
:10242000C0F808C0476891F804C0B743CCF3001C5B
:102430000CFA03FC4CEA070CC0F804C00E79F64312
:10244000B6070BD0C6684FEA43088F6804FA08FC49
:1024500026EA0C0607FA08F73743C7600E7906F03C
:102460000306022E12D1DE080F694FEA437C00EB0F
:102470008606B646366A4FEADC6C0AFA0CF807FAAA
:102480000CF726EA08063743CEF820700F79066865
:102490004FEA430807F0030704FA08FC07FA08F7B5
:1024A00026EA0C06374307604E6816F4403F1CD0FE
:1024B000464E376847F00207376036689F0706F0D8
:1024C0000206009623F0030606F1B046B6463F0F1B
:1024D000D6F80864DFF8F8800AFA07FC404526EAD7
:1024E0000C0603D14FF0000C3AE065E0DFF8E4C0E1
:1024F000604502D14FF0010C32E0DFF8DCC06045EE
:1025000002D14FF0020C2BE0DFF8D0C0604502D1C1
:102510004FF0030C24E0DFF8C8C0604502D14FF053
:10252000040C1DE0DFF8BCC0604502D14FF0050C83
:1025300016E0DFF8B4C0604502D14FF0060C0FE0A2
:10254000DFF8A8C0604502D14FF0070C08E0DFF8C3
:10255000A0C0604502D14FF0090C01E04FF00A0C19
:102560000CFA07FC4CEA060CCEF808C44F68DBF8FE
:102570000060FF0226EA020600D516435F46CBF84C
:102580000060D1F804C0DBF804605FEA8C2C26EA16
:10259000020600D516437E606E684F6826EA020682
:1025A000BF0300D516436E602E684F6826EA020608
:1025B000FF0300D516432E605B1C0A6832FA03F64F
:1025C0007FF416AFBDE8F88F80000058F44402583D
:1025D000000002580004025800080258000C02587B
:1025E000001002580014025800180258001C02582B
:1025F000002402580069084000D001207047426959
:1026000021EA02030A4043EA0241816170470AB1AC
:10261000816170470904FBE701488068704700004A
:102620001C000024024881680278114481607047D0
:102630001C000024032010B500F04AF901F04CFE04
:102640000F4A104914681368C4F3032203F00F0300
:102650008A5CC95C02F01F0201F01F01D0400A4AE7
:1026600020FA01F11160094908600F2000F010F80C
:1026700008B1012010BD00F02BF8002010BD0000B3
:1026800018440258689F0008300000242C000024E1
:1026900070B50D4D04462878A0B14FF47A71B1FBA6
:1026A000F0F00A490968B1FBF0F002F06CFB48B9A0
:1026B000102C07D200222146501E00F0E9F800201D
:1026C0006C6070BD012070BD1C0000242C00002433
:1026D000054808B5016841F002010160006800F09A
:1026E0000200009008BD0000F44402582DE9F041BA
:1026F0000400174688464FF0000504D094F84500C2
:10270000002618B107E00120BDE8F081204684F8DA
:10271000446000F05FF8206804F10801FFF7DEF97B
:10272000A26841462068FFF723FAE36A3946D4E9F4
:102730000102FFF7B3F9A36801212068234A50F88A
:10274000237047F0010740F82370606930B31160CF
:102750001F48036843F00043036084F84510A168F4
:10276000F1B102291FD0042920D04FF0D840636A6C
:10277000FBB111689823012922D000F155010B808B
:10278000BFF34F8F116801291DD013300088A0645A
:10279000204600F021F805462846B5E71660D7E741
:1027A0004FF0C040E3E74FF0C840E0E74FF0D040C3
:1027B000DDE72068FFF710FA042084F84500EBE716
:1027C00000F1AA01DBE72630E0E700002800002442
:1027D00000400052FFF728BD30B590F84520002397
:1027E000022A24D0042A01D0012A01D0012030BDC0
:1027F00090F8441001291AD08168012580F84450CE
:10280000022480F84540A1B1022915D0042916D030
:102810004FF0D841846C022C14D0012C14D0012329
:1028200080F84520002180F84410184630BD022071
:1028300030BD4FF0C041EDE74FF0C841EAE74FF03F
:10284000D041E7E7F02400E0FF240C80BFF34F8F76
:10285000E6E700280DDB410900F01F028900012096
:1028600001F1E0219040C1F88001BFF34F8FBFF329
:102870006F8F7047002809DB410900F01F028900B3
:10288000012001F1E0219040C1F8000170470000F3
:102890000E4BF0B41B680D46C3F30223C3F10706C9
:1028A000042E00D90426191D072901D2002300E0B7
:1028B000DB1E012404FA06F19C40491E2940641ED7
:1028C000994014402143F0BC06F0F4BF0CED00E049
:1028D000064900F0070210B54FF6FF040868044BE4
:1028E000204040EA02201843086010BD0CED00E0D3
:1028F0000000FA0501680123C0F80035002280F8C5
:10290000F4248869044A40F000608861486D1043EF
:102910004865002070470000030000107047006801
:10292000416200207047F0B503685D6A39B19F6A63
:102930004C1E00204FF4827605EB17450BE045EA6C
:102940000240986210E0471C06EB800053F800C07C
:10295000F8B205EB1C45A042F5D34FF4807000EBB4
:10296000810045EA02421A500020F0BDD0F8080567
:1029700005F032BE01EBC10200EB8202D0F808057F
:10298000926C05F053BD01EBC10200EB8202D0F85E
:102990000805D2F8882205F0B7BDD0F8080505F083
:1029A0001DBE0A0601F00F0101EBC10100EB810120
:1029B00001D53C3101E001F51F71006806F0ACBDA6
:1029C00001F00F020B0670B502EBC20104464FF096
:1029D00001004FF0000504EB810103D581F83D00B3
:1029E0003C3103E081F87D5201F51F710A7094F8C3
:1029F000BC24012A08D084F8BC04206806F0A8FA98
:102A0000002084F8BC5470BD022070BD70B54268CF
:102A1000044601F00F00904201D9012070BD01F081
:102A20000F024FF000050B0602EBC2014FF001024E
:102A300004EB810103D581F83D203C3103E081F8AE
:102A40007D5201F51F718D70087094F8BC04012847
:102A500008D084F8BC24206806F0EAFB002084F843
:102A6000BC5470BD022070BD01F00F0101EBC1012B
:102A700000EB8100D0F8900270472DE9F04101F0A1
:102A80000F0604460D064FF0010006EBC6014FF09D
:102A9000000504EB810103D581F83D003C3103E0E2
:102AA00081F87D5201F51F714F788A600B710E70AD
:102AB00007B14E83022B00D14D7194F8BC24012A3A
:102AC00009D084F8BC04206806F05CF9284684F834
:102AD000BC54BDE8F0810220FBE770B501F00F05A2
:102AE000002405EBC50100EB810101F5227181E8AD
:102AF0001C0001F80B4C01F80C5DC368012B00D1E0
:102B0000CA61027B006806F0EBFB002070BD70B567
:102B10000D464168044605F00F00884201D90120A6
:102B200070BD29064FF000064FF0010207D500EBFB
:102B3000C00104EB810181F83D203C3107E005EB49
:102B4000C50104EB810181F87D6201F51F718A7076
:102B5000087094F8BC04012807D084F8BC242068CD
:102B600006F092FB280702D007E0022070BD217B0F
:102B700004F2C442206806F02FFB002084F8BC64F5
:102B800070BD70B501F00F04002504EBC4010126EF
:102B900000EB8101483181E82C0001F80B6C01F851
:102BA0000C4DC368012B00D1CA61027B006806F09E
:102BB00097FB002070BD00002DE9FC5F056804460E
:102BC000284606F04AFD00287ED1206806F071FDF7
:102BD000002879D0D5F80808C0F30D20C4F8FC040B
:102BE000206806F066FD800704D52068416901F081
:102BF00002014161206806F05CFDC10604F2C44098
:102C0000009034D52068816921F0100181612F6A1C
:102C100007F00F01C7F3434001EBC101022804EBA9
:102C2000810606F51F7602D0062811D01AE047F675
:102C3000F070074216D0C7F30A12F168174628460B
:102C400006F03BFDF16870693944F160384408E0F2
:102C500000990822284606F030FD7069C7F30A1172
:102C6000084470612068816941F010018161206829
:102C700006F01FFD00034FF0000A4FF0020B4FF06B
:102C800001097CD52068002606F0F2FC074674E0B6
:102C9000F80770D02068F1B206F003FD8046C00747
:102CA00007D005EB4611C1F8089B3146204603F0DA
:102CB00001F95FEA087025D505EB46110820C1F837
:102CC000080BFC49206800E042E2026C00EB461071
:102CD00001928A42D0F8081B05D9090403D54FF4A4
:102CE0000041C0F8081B204600F01BFBF149019889
:102CF000884207D9E068012804D120680121009AA0
:102D000006F06AFA5FEAC86004D505EB46111020A8
:102D1000C1F8080B5FEA88701CD56869000605D504
:102D2000D5F8040840F48061C5F8041806EBC60025
:102D300004EB800090F87F1200F51F70012905D187
:102D400080F803A02046F1B200F008FA05EB461126
:102D5000C1F808BB5FEA886004D505EB4611202066
:102D6000C1F8080B5FEA884005D505EB46114FF422
:102D70000050C1F8080B7F08761C002F88D120680E
:102D800006F097FC40036FD5206806F06AFC002629
:102D9000074667E0F80763D02068F1B206F06FFCE1
:102DA0008046C00723D0D5F8342806F00F0C05EB79
:102DB000461309FA0CF08243C5F83428C3F8089981
:102DC000E06801280FD106EBC60004EB8000D0E9D3
:102DD00011121144816436B9E06C20B920680121D8
:102DE000009A06F0F9F92046F1B2FFF7C3FD5FEA59
:102DF000087004D505EB46110820C1F808095FEA00
:102E0000C86004D505EB46111020C1F808095FEA37
:102E1000486004D505EB46114020C1F808095FEA77
:102E2000887016D53146284606F0EAFB06EBC60048
:102E300004EB800090F83F103C30012905D180F868
:102E400003A02046F1B200F085F905EB4611C1F868
:102E500008B95FEA086003D53146204603F090F8D0
:102E60007F08761C002F95D1206806F022FC0028F0
:102E700011DAD5F8040820F00101C5F8041894F817
:102E8000F40401283BD0204600F02FFA2068416965
:102E900001F000414161206806F00BFC00050BD5F4
:102EA000D5F80808C00702D0204600F063FA206871
:102EB000416901F400614161206806F0FAFB0001FC
:102EC0000AD52068416901F00061416194F8F40479
:102ED000E0B1204600F04EFA206806F0EAFBC0049C
:102EE00072D5D5F8040820F00101C5F8041820684F
:102EF000102106F085FB00214FF67F322DE00021E6
:102F0000204684F8F4A4FFF709FDBFE784F8F494A1
:102F10002068406D0121C0F38300C4F8F804204606
:102F2000FFF7FCFCD8E700BF05EB4110C0F808290B
:102F3000D0F8003923F40013C0F80039C0F8082B8A
:102F4000D0F8003B23F40013C0F8003BD0F8003B5E
:102F500043F00063C0F8003B491C60688842E3D836
:102F6000D5F81C0840F00111C5F81C18206B68B199
:102F7000D5F8840840F00B01C5F88418D5F844084A
:102F800040F00B012846C5F844180DE0D5F81408A8
:102F900042F22B010843C5F81408D5F8100840F098
:102FA0000B012846C5F81018D0F8000820F4FE617F
:102FB000C5F80018217B2068009A06F00DF92068FA
:102FC000416901F480514161206806F072FB800480
:102FD00017D5206805F016FF206806F031FB206148
:102FE00001F034F9217C2368CAB20146184606F084
:102FF000C5FB204600F062F92068416901F40051E8
:103000004161206806F055FB000707D5204600F017
:1030100070F92068416901F008014161206806F0FB
:1030200048FB000616D5A869012620F08001A96199
:103030000DE000BF06EBC60004EB800090F87F02B5
:10304000012803D12046F1B2FFF7ABFC761C606883
:10305000B042EFD8206806F02CFBC00221D5012633
:103060004F4616E006EBC60105EB461004EB810166
:10307000D0F8000991F84020012A09D1002807DA88
:10308000F0B281F83F7040F080012046FFF789FCE4
:10309000761C6068B042E5D82068416901F480116F
:1030A0004161206806F005FB800234D501204B46C3
:1030B00029E000000A30544F00EBC00205EB40113C
:1030C00004EB8202D1F8001B92F88062012E19D124
:1030D000002917DA94F8FC6401F4803106F0010647
:1030E000B1420FD182F87F32A96941F08002AA6112
:1030F0006969090606D4D5F8040840F40070C5F8DB
:10310000040803E0401C61688142D5D82068416909
:1031100001F400114161206806F0CBFA400007D5A8
:103120002046FFF723FC2068416901F0804141619E
:10313000206806F0BEFA40070AD52068456868078F
:1031400002D52046FFF729FC2068416829434160E9
:10315000BDE8FC9FD0F8080505F099BAD0F808053D
:1031600005F0AABA2DE9F04104008AB005D094F820
:10317000BD040025266820B108E001200AB0BDE8A2
:10318000F081204684F8BC5400F066F8032084F8EF
:10319000BD04F06BC00500D4E560206806F016F8A9
:1031A00004F11001684628228846FDF7E0F894E80B
:1031B0000F0005F069FE0227D8BB2068002106F049
:1031C0009CFA0020012610E000EBC001421C04EB39
:1031D000810181F83D6081F840504D648D64CD647B
:1031E00081F83C00A1F85600D0B261688142EBD86A
:1031F000002011E000EBC001421C04EB810181F8CA
:103200007D5281F88052C1F88452C1F88852C1F8C9
:103210008C5281F87C02D0B261688142EAD82822BF
:1032200041466846FDF7A3F894E80F0005F012FF49
:1032300010B184F8BD74A0E7606A84F8385084F84F
:10324000BD64012802D12046FFF754FB206805F039
:10325000F3FE002092E7000010B5B0B00446B8219C
:1032600002A8FDF79DF82068A0F18041B1F580210A
:1032700020D1002003904FF4802102914FF44010A0
:10328000239002A800F016FA08B1FEF704FC00F043
:10329000B3F80948016841F000710160006800F06E
:1032A0000070019000224D201146FFF7F1FA4D20E9
:1032B000FFF7E0FA30B010BDD844025870B50446AC
:1032C0000125206900280ED0022801D0FEF7E3FB7B
:1032D000D4F80805294605F060FAD4F80805BDE8D9
:1032E000704005F013BA0025F2E7D0F8080505F0A4
:1032F0003DBAD0F8080505F043BA10B5044690F879
:10330000BC0401280BD0012084F8381084F8BC04D8
:10331000206806F021FA002084F8BC0410BD0220C9
:1033200010BDD0F8082500F2C441104605F041BA9E
:1033300010B590F8BC1404460068012909D0012199
:1033400084F8BC14C16BC90509D4A16A012902D053
:1033500005E0022010BD816B41F48031816320685B
:1033600006F029F9206805F059FE002084F8BC0415
:1033700010BD000010B50446D4F8080505F05DFA4C
:103380002068D0F8001E41F00101C0F8001E206A3C
:10339000002804D00248016841F00601016010BD18
:1033A00010ED00E0134970B50A68D243520705D505
:1033B000096801F00701814213D118E00A6822F080
:1033C000070202430A60FFF727F90A4D4FF47A76A5
:1033D0000446083D07E000BFFFF71EF9001BB0429E
:1033E00001D9012070BD2868C0438004F4D40020B6
:1033F00070BD00000C4802580248016841F080711D
:10340000016070470C48025810B500F01FFF0549D5
:103410000968054AC1F30211515C01F01F01C8405F
:1034200010BD000020440258689F0008494930B58B
:10343000484C0B1D0A68143409681D68246802F0A2
:103440000303C5F30012C1F30531C4F3CC04002912
:1034500014FB02F200EE102AF8EE400A75D03F4A43
:103460009FED3D1AB7EE000A6BB1DFED3D1A012B5F
:1034700001D0022B64D002EE101A1168F8EE422A35
:1034800081EEA22A21E0334C283C23689B0612D50A
:10349000344B246801EE901A1168C4F3C104F8EEAD
:1034A000612AE34001EE903AC1F30801F8EE611A97
:1034B00081EEA22A0BE001EE901ADFED2B2A00BF6D
:1034C000F8EE611A116882EEA12AC1F3080101EE3B
:1034D000901A1168F8EE611A40EE811A71EE800AB6
:1034E00062EE200AC1F3462101EE101AB8EE411A2D
:1034F00031EE001AC0EE811ABCEEE11A80ED001A1E
:103500001168C1F3064101EE101AB8EE411A31EE0E
:10351000001AC0EE811ABCEEE11A80ED011A1168A2
:10352000C1F3066101EE101AB8EE411A31EE000A3D
:1035300080EE801ABCEEC10A80ED020A30BD04E0C4
:1035400001EE901ADFED092ABAE70021016041601F
:103550008160F3E7284402580000003938440258DB
:103560000024744A0090D0030024744C0024F44AD0
:10357000494930B5484C0B1D0A681C3409681D6860
:10358000246802F00303C5F30022C1F30551C4F31C
:10359000CC04002914FB02F200EE102AF8EE400AD7
:1035A00075D03F4A9FED3D1AB7EE000A6BB1DFEDD3
:1035B0003D1A012B01D0022B64D002EE101A1168C3
:1035C000F8EE422A81EEA22A21E0334C283C2368FF
:1035D0009B0612D5344B246801EE901A1168C4F38F
:1035E000C104F8EE612AE34001EE903AC1F308010C
:1035F000F8EE611A81EEA22A0BE001EE901ADFEDDF
:103600002B2A00BFF8EE611A116882EEA12AC1F3DD
:10361000080101EE901A1168F8EE611A40EE811A65
:1036200071EE800A62EE200AC1F3462101EE101A03
:10363000B8EE411A31EE001AC0EE811ABCEEE11A62
:1036400080ED001A1168C1F3064101EE101AB8EEC0
:10365000411A31EE001AC0EE811ABCEEE11A80ED7B
:10366000011A1168C1F3066101EE101AB8EE411A91
:1036700031EE000A80EE801ABCEEC10A80ED020A2B
:1036800030BD04E001EE901ADFED092ABAE700210F
:10369000016041608160F3E728440258000000396E
:1036A000404402580024744A0090D0030024744C13
:1036B0000024F44A2DE9FE4F0546DFF800A450F837
:1036C000081B0024FD4FC943019005F12800264640
:1036D0000AF1240A009008011DD4686E50B1B0F5BB
:1036E000801F0CD0B0F5001F0ED0B0F5401F1ED0CB
:1036F00001240FE0386840F40030386017E001988A
:10370000022102F08FFC03E00098022102F01AFD72
:1037100004000CD026462888C043C00523D4A86DD9
:1037200005281ED2DFE800F00C11161B1B006A6E84
:10373000DAF8001021F440111143CAF80010EAE74A
:10374000386840F40030386009E00198002102F048
:1037500069FC03E00098002102F0F4FC0446C4B1C7
:1037600000E0012426462888DFF85083C04308F192
:103770002C0840052FD4D5F8A400B0F5C00F28D0F0
:1037800010DCB8B1B0F5001F19D0B0F5800F0FD123
:103790001AE0AA6DDAF8001021F007011143CAF807
:1037A0000010E0E7B0F5000F13D0B0F5200F10D0F7
:1037B00001240FE0386840F40030386009E00198D7
:1037C000002102F02FFC03E00098002102F0BAFC77
:1037D000044694B126462888C043000530D4D5F865
:1037E000A800B0F1407F29D011DCC0B1B0F1807FDA
:1037F0001AD0B0F1007F10D11BE0D5F8A420D8F882
:10380000001021F460011143C8F80010E3E7B0F1A3
:10381000806F13D0B0F1A06F10D001240FE0386892
:1038200040F40030386009E00198002102F0FAFB12
:1038300003E00098002102F085FC044694B126467E
:103840002868DFF878B2C0430BF1200B80011FD449
:10385000E86CD8B110280FD0202812D0302815D00D
:10386000012414E0D5F8A820D8F8001021F0E06178
:103870001143C8F80010E3E7386840F400303860BE
:1038800004E00198022102F0CDFB044674B1264603
:103890002888C043C0042BD4E86DB0F5005F20D069
:1038A0000DDCA0B1B0F5805F0FD115E0EA6CDBF85C
:1038B000001021F030011143CBF80010E8E7B0F51B
:1038C000405F13D0B0F5804F10D001240FE038686E
:1038D00040F40030386009E00198002102F0A2FBBA
:1038E00003E00098002102F02DFC04468CB126462E
:1038F0002888C043800429D4286EB0F5403F23D0E7
:1039000010DC08B3B0F5803F14D0B0F5003F0FD104
:1039100015E0EA6DDAF8001021F4E0411143CAF82D
:103920000010E5E7B0F5802F0ED0B0F5A02F0BD03A
:1039300001240AE00198012102F074FB03E00098E1
:10394000012102F0FFFB044694B126462888C043BB
:1039500040042AD4D5F8AC00B0F1405F23D010DC8D
:1039600008B3B0F1805F14D0B0F1005F0FD115E063
:103970002A6EDAF8001021F4E0211143CAF8001091
:10398000E4E7B0F1804F0ED0B0F1A04F0BD001248E
:103990000AE00198012102F045FB03E000980121B3
:1039A00002F0D0FB044674B126462888C0430004C8
:1039B0001FD4E86ED8B1B0F1805F0ED0B0F1005FD7
:1039C00010D0012414E0D5F8AC20D8F8001021F074
:1039D000E0411143C8F80010E7E7386840F40030D0
:1039E000386004E00198012102F01CFB044674B128
:1039F00026462868C043C0011ED4A86CD0B1012857
:103A00000ED0022811D0032814D0012413E0EA6E4E
:103A1000DAF8001021F040511143CAF80010E8E72D
:103A2000386840F40030386004E00198022102F068
:103A3000F9FA04466CB126462868C043400255D4C2
:103A40001F48016841F480710160FEF7E5FD814681
:103A50000EE0AA6CDBF8001021F003011143CBF853
:103A60000010E9E7FEF7D8FDA0EB090064283BD879
:103A700013480068C005F5D5BCBBDFF84090B5F829
:103A8000B01009F14409D9F8000001F4407100F4C4
:103A90004070884211D0D9F80010D9F8002021F4E4
:103AA000407142F48032C9F80020D9F8002022F495
:103AB0008032C9F80020C9F8001003E02C440258F5
:103AC00000480258D5F8B000B0F5807F19D1FEF754
:103AD000A3FD029011E000BFFEF79EFD0299411A7E
:103AE00041F28830814208D9032426462878DFF83D
:103AF0001494C043C00721D03CE0D9F800008007EF
:103B0000EAD5D5F8B010C1F301200328FE480DD046
:103B1000016821F47C510160B5F8B020D9F800109B
:103B2000C2F30B021143C9F80010DFE7F74A03683C
:103B300002EA111223F47C511143ECE7A86F182814
:103B400016D005DCA0B1082808D0102804D10AE05E
:103B500020280DD028280BD001240AE0019801214B
:103B600002F060FA03E00098012102F0EBFA04464B
:103B700064B126462878C04380071ED4686F0628A3
:103B800019D2DFE800F0160C11161616AA6FD9F834
:103B9000001021F038011143C9F80010EAE701983C
:103BA000012102F03FFA03E00098012102F0CAFA75
:103BB00004467CB100E0012426462878C043400733
:103BC0001FD4D5F89000062819D2DFE800F0160CB3
:103BD000111616166A6FD9F8001021F0070111436B
:103BE000C9F80010E9E70198012102F01BFA03E08F
:103BF0000098012102F0A6FA0446A4B100E00124D5
:103C000026462878C04380062BD4D5F88C00B0F126
:103C1000405F24D011DC10B3B0F1805F15D0B0F15B
:103C2000005F10D116E0D5F89020D8F8001021F0F0
:103C300007011143C8F80010E3E7B0F1804F0ED040
:103C4000B0F1A04F0BD001240AE00198002102F04E
:103C5000E9F903E00098022102F074FA044694B1F5
:103C600026462878C04340062BD4D5F89800B0F5F6
:103C7000406F24D011DC10B3B0F5806F15D0B0F5D3
:103C8000006F10D116E0D5F88C20D9F8001021F083
:103C9000E0411143C9F80010E3E7B0F5805F0ED0B2
:103CA000B0F5A05F0BD001240AE00198002102F0DA
:103CB000B9F903E00098022102F044FA044694B1F5
:103CC00026462878C04300062BD4D5F89C00B0F5D2
:103CD000C04F24D011DC10B3B0F5005F15D0B0F5A3
:103CE000804F10D116E0D5F89820D8F8001021F4B4
:103CF000E0511143C8F80010E3E7B0F5004F0ED0D3
:103D0000B0F5204F0BD001240AE00198002102F009
:103D100089F903E00098022102F014FA044654B134
:103D200026462878C04300071ED4D5F88000B0F599
:103D3000805F0AD00FE0D5F89C20D8F8001021F45D
:103D400060411143C8F80010EBE70098022102F02F
:103D5000F9F900B10126D5F88020D9F8001021F436
:103D600040511143C9F800102878C043C00613D44D
:103D7000D5F89400B0F5807F05D10098022102F0BB
:103D8000E1F900B10126D5F89420D8F8001021F40B
:103D900040711143C8F800102868C043000316D4CE
:103DA000D5F8A00038B1B0F5803F09D0B0F5003F9C
:103DB0000BD001240AE00198002102F033F903E05E
:103DC0000098022102F0BEF904468CB1264628680C
:103DD000C043400322D4D5F88400B0F5801F11D031
:103DE000B0F5001F13D0B0F5401F15D0012414E02A
:103DF000D5F8A020D8F8001021F440311143C8F8BC
:103E00000010E4E7386840F40030386004E00098BF
:103E1000012102F097F904465CB126462868C043A8
:103E2000C0031CD4286D70B1B0F5803F10D00124C0
:103E300014E0D5F88420D9F8001021F44011114382
:103E4000C9F80010EAE7386840F40030386004E050
:103E50000198022102F0E6F80446DCB12646286803
:103E6000C043800005D40098022102F06BF900B134
:103E700001262868C04380031BD4E86FB8B1B0F5B1
:103E8000807F10D0B0F5007F11D0B0F5407F0ED00C
:103E900001240DE02A6DDBF8001021F4803111437C
:103EA000CBF80010DBE7386840F4003038607CB3B2
:103EB00026462868C043C00207D42A6FDAF80010EB
:103EC00021F000411143CAF800102868C043800265
:103ED00007D4AA6EDAF8001021F080711143CAF8F5
:103EE00000102868C043400009D40748016821F445
:103EF000004101600168D5F8B420114301602868D1
:103F0000C04306E05444025810440258CFFFFF005B
:103F10001DE007D46A6DDBF8001021F04051114319
:103F2000CBF800102868C043000208D4D5F88820D8
:103F3000D9F8001021F440011143C9F80010287984
:103F40000024C04300F00100204309D00EE0EA6FD6
:103F5000D9F8001021F440711143C9F80010A8E706
:103F60000198002102F05EF800B106462879C043AE
:103F700000F00200204305D10198012102F052F81F
:103F800000B106462879C04300F00400204305D163
:103F90000198022102F046F800B106462879C04394
:103FA00000F00800204305D10098002102F0CAF873
:103FB00000B106462879C04300F01000204305D127
:103FC0000098012102F0BEF800B106462879C043EE
:103FD00000F02000044304D10098022102F0B2F85E
:103FE00000B916B10120BDE8FE8F0020FBE70000FC
:103FF0002DE9F05F04000F467ED0DFF83882D8F854
:10400000000000F00F00B8420CD2D8F8001021F0E8
:104010000F013943C8F80010D8F8000000F00F0075
:10402000B84269D12078844D40070AD520692968B3
:1040300001F07001884204D9296821F07001014320
:10404000296020787C4E361D00070AD560693168EA
:1040500001F07001884204D9316821F070010143F8
:1040600031602078C0060AD5A069316801F4E061AA
:10407000884204D9316821F4E0610143316020783D
:10408000DFF8B4B180060BF1080B0CD5E169584696
:10409000DBF8002002F07002914204D9026822F09D
:1040A00070020A430260207880070AD5E068296818
:1040B00001F00F01884204D9296821F00F01014362
:1040C00029602078C0073ED05B49A268286818396B
:1040D00020F47060104328606068022818D003281C
:1040E00019D00968012819D0490700294ADADFF8F0
:1040F00048A1AAF1080A00E044E0DAF8002022F022
:1041000007020243CAF80020FEF786FA814612E051
:1041100009688903E9E709688901E6E7C905E4E771
:10412000FEF77AFAA0EB090141F28830814202D908
:104130000320BDE8F09F6168DAF8000000F0380065
:10414000B0EBC10FECD1207880070AD5E068296870
:1041500001F00F01884204D2296821F00F010143C8
:104160002960D8F80010404601F00F01B9420BD980
:10417000016821F00F0139430160006800F00F0071
:10418000B84201D00120D4E7207840070AD5206941
:10419000296801F07001884204D2296821F0700179
:1041A00001432960207800070AD56069316801F071
:1041B0007001884204D2316821F0700101433160FE
:1041C0002078C0060AD5A069316801F4E061884210
:1041D00004D2316821F4E061014331602078800627
:1041E0000CD5E1695846DBF8002002F070029142DC
:1041F00004D2026822F070020A43026000F06CF8F8
:104200000E492A682B68C2F3032203F00F038A5C6D
:10421000C95C02F01F0201F01F01D040084A20FAD9
:1042200001F111600749086007480068BDE8F05FC8
:10423000FEF72EBA0020005218440258689F00086A
:10424000300000242C0000242000002430B500F0B1
:1042500043F80B4A0B490C4B15681468C5F303224D
:1042600004F00F048A5C095D02F01F0201F01F01D7
:10427000D040064A20FA01F119601060084630BDAE
:1042800018440258689F0008300000242C000024C5
:1042900000B5FFF7DBFF05490968054AC1F30211C4
:1042A000515C01F01F01C84000BD00001C440258D1
:1042B000689F000800B5FFF7C9FF05490968054A6E
:1042C000C1F30221515C01F01F01C84000BD000094
:1042D0001C440258689F0008454970B54548096864
:1042E000434B103B11F0380208D00111082A03D0CB
:1042F000102A0BD0182A0BD0084670BD1968890601
:10430000FBD51968C1F3C101C84070BD3A4870BD02
:104310003749374D18310C1D24350A68096826685D
:104320002D6802F0030406F00102C1F30511C5F384
:10433000CC0515FB02F200EE102AB8EE400AE9B3F4
:104340002F4ADFED2E0AB7EE001A6CB1DFED2D1A01
:10435000012C01D0022C43D002EE101A1068F8EEA6
:10436000422A81EEA22A1EE01C68A40611D51B6811
:1043700001EE901A1168C3F3C103F8EE612AD84028
:1043800001EE900AC1F30800F8EE611A81EEA22A4C
:104390000BE001EE901ADFED1C2A00BFF8EE611A67
:1043A000106882EEA12AC0F3080001EE900AF8EE30
:1043B000611A40EE201A31EE810A00E015E022EE8B
:1043C000000A1068C0F34620401C00EE900AF8EE88
:1043D000600A80EE201ABCEEC10A10EE100A70BD11
:1043E00001EE901ADFED092AD8E7002070BD000029
:1043F000104402580090D00300127A0000000039E7
:10440000304402580024744A0024744C0024F44AB6
:104410002DE9F05F04007DD0FF4F2078FE4D183766
:10442000DFF8F483103DC00748D0D8F800003968A1
:1044300000F03800102815D0182803D101F003002F
:1044400002280FD06068B0F5803F12D010B1B0F5EF
:10445000A02F18D0286820F480302860286820F425
:10446000802009E02868800328D560680028D2D021
:1044700024E0286840F480302860606888B1FEF746
:10448000CBF8064609E0286840F480202860F0E771
:10449000FEF7C2F8801B64287ED828688003F7D511
:1044A0000CE0FEF7B9F8064605E000BFFEF7B4F8E9
:1044B000801B6428F0D828688003F7D42078800710
:1044C00056D5D8F80000DFF85093396810F038005E
:1044D000A9F10C090ED0182801D188070AD0E0688C
:1044E000A8B3296821F0190101432960FEF794F867
:1044F000064628E02868400702D5E06800288AD0F0
:10450000E168286820F0190008432860FEF784F865
:10451000064606E0D2E000BFFEF77EF8801B0228C8
:10452000BAD828684007F7D5217CD9F8002022F0B6
:10453000FE4242EA0161C9F8001019E0FEF76CF88A
:10454000801B0228A8D828684007F7D5ECE7FFE7CA
:10455000286820F001002860FEF75EF8064604E0B7
:10456000FEF75AF8801B022896D828684007F7D42F
:104570002078C00646D5D8F80000DFF89C9239684C
:1045800000F03800A9F10409082812D0182805D134
:1045900001F00300012800E0CEE00AD0E069002825
:1045A000286820D040F080002860FEF735F80646E5
:1045B00015E02868C00502D5E06980287ED194F80E
:1045C0002010D9F8002022F07C5242EA0161C9F89B
:1045D000001017E0FEF720F8801B0228A0D82868FA
:1045E000C005F7D5EBE720F080002860FEF714F84F
:1045F000064604E0FEF710F8801B022890D82868D1
:10460000C005F7D42078000729D583486169643054
:1046100000298146016811D041F001010160FDF7D8
:10462000FBFF064605E000BFFDF7F6FF801B0228F2
:1046300088D8D9F800008007F6D510E021F00101F4
:104640000160FDF7E9FF064605E000BFFDF7E4FF66
:10465000801B022870D8D9F800008007F6D4207893
:10466000800623D5A0690028286810D040F4805027
:104670002860FDF7D1FF064605E000BFFDF7CCFF3F
:10468000801B022858D828688004F7D50EE020F453
:1046900080502860FDF7C0FF064604E0FDF7BCFF30
:1046A000801B022848D828688004F7D42078400767
:1046B00051D5DFF86891D9F8001000E015E141F418
:1046C0008071C9F80010FDF7A7FF064605E000BF9E
:1046D000FDF7A2FF801B64282ED8D9F80000C00582
:1046E000F6D54D4EA068603601280AD008B10528DD
:1046F00013D0306820F001003060306820F00400F2
:1047000002E0306840F001003060A06841F2883A71
:1047100098B1FDF781FF81460AE0306840F004005F
:104720003060EEE7FDF778FFA0EB0901514503D8B3
:1047300030688007F6D50EE072E0FDF76DFF814628
:1047400006E000BFFDF768FFA0EB0901514567D8FF
:1047500030688007F6D4606A00287CD0DFF8B8A003
:10476000D8F800100AF1200A4FF6F87B0AF1040885
:10477000C1F3C2010329AAF104096DD002282868F7
:1047800020F08070286003D0FDF746FF044681E0EA
:10479000FDF742FF064604E0FDF73EFF801B0228BE
:1047A00075D828688001F7D4E26A40F2F33138689E
:1047B00054F8283F884340EA021018433860217BB0
:1047C0004FF4FE0C22894FF0FE47208A4902267DD5
:1047D000521E401EA1F5007189B2C2F308021143B6
:1047E000761E0CEA00400143484607EA0662114380
:1047F000CAF80010D9F8001021F00101C9F8001022
:10480000D8F80030266A23EA0B0343EAC601C8F849
:104810000010D9F8001004E0104402580048025873
:1048200035E0A26921F00C011143C9F800100168BC
:10483000E26921F0020111430160016841F4803115
:104840000160016841F400310160016841F4802198
:104850000160016801E06CE020E041F001010160CD
:10486000286840F080702860FDF7D6FE044604E01A
:10487000FDF7D2FE001B022809D828688001F7D571
:1048800057E000BFFDF7C8FE001B022802D9032035
:10489000BDE8F09F28688001F4D44AE03968012817
:1048A000DAF8000021D0A26A01F0030393421CD180
:1048B000E26AC1F305118A4217D1216BC0F30802E5
:1048C000491E8A4211D1616BC0F34622491E9142B2
:1048D0000BD1A16BC0F30642491E914205D1E16B99
:1048E000C0F30660491E814201D00120D0E7A16CCF
:1048F0004646D8F80000C0F3CC00814219D0D9F860
:1049000000004D4620F00100C9F80000FDF784FECC
:104910004FEA0007FDF780FEB842FBD0A26C30687A
:1049200020EA0B0040EAC2003060286840F0010035
:1049300028600020ACE700002DE9F047040029D0F2
:10494000594A4FF000092068584B594D9042C4F81D
:10495000289006D0984204D0A84202D0E1680F29DE
:1049600018D8E1684FF0010AE76B0831C9080AEB73
:1049700057167143904205D0984203D0A84201D007
:10498000082907D8904203D0984201D0A84204D108
:10499000102902D90120BDE8F08794F8810020B9E0
:1049A000204684F8809000F085F8022084F8810089
:1049B0002068016821F0010101602068A169826816
:1049C000B1F1806F02F4F81110D16268B2F5800F76
:1049D00001D01AB10AE0A26B22B107E0A26BB2F1DA
:1049E000805F03D1026842F4805202606068400236
:1049F00009D5E068072806D32068236D026822F4F1
:104A000080721A4303E02068026822F48072026018
:104A1000A66AE069E26B25683043E3680A43104305
:104A20001843A860D4E90D02D4E90581636A2569B9
:104A30001843D4F820C00A43266810432843A56DC4
:104A4000D4E90172D4E9123140EA080040EA0C00CE
:104A500038430843104318432843F060606868B93E
:104A60002068816821F4C05141F4006181602068B0
:104A7000816821F4C06141F4806181602068016D2A
:104A800021F0010101656068400206D52068626D71
:104A9000C16821F000411143C160C4F8849084F8DA
:104AA00081A0002077E7000000300140003800407E
:104AB000003C004010B5B4B0044614212EA8FBF70A
:104AC0006FFCB8216846FBF76BFC184920688842E8
:104AD0002AD18114002017900446CDE900106846C1
:104AE000FEF7E8FD08B1FCF7D6FF1148016841F474
:104AF00080510160006800F4805033900C481038F9
:104B0000016841F00101016000682EAB022100F054
:104B100001003390E020052283E8130005482EA908
:104B2000CDE93142FDF758FC34B010BD00300140F2
:104B3000F0440258000002582DE9FC5F044600686A
:104B400017468A460021994694F8802000F1200BF0
:104B50000191012A0DD04FF0010884F88080FDF703
:104B60005BFD064694F881000025012804D0022050
:104B700034E00220BDE8FC9FBAF1000F2DD067B3EE
:104B8000A1680320C4F85CA0A4F8607084F88100D8
:104B9000C4F88450A4F862706566A4F86850A4F85C
:104BA0006A50B1F5C02F65672567206819D0C168C4
:104BB00021F4C02141F40031C160206841686FF3E5
:104BC0000F01394341602068016841F00101016033
:104BD0006068B0F5800F09D00DE0012084F88050A6
:104BE000C8E7016841F400610160E6E720680168F8
:104BF00041F400710160E0680F281CD820E02068B3
:104C0000416989070BD5E16D09680162E06D001DFE
:104C1000E065B4F86200401EA4F862000BE0FDF706
:104C2000FBFC811B494503D3B9F1FF3F03D099E059
:104C3000B9F1000F30D0B4F862000028DFD177E07E
:104C400007282DD870E02068416989071CD5B4F881
:104C5000621001290BD9E16B49B1E16D096801626C
:104C6000E06D001DE065B4F86200801E09E0E06DB3
:104C70000188ABF80010E06D801CE065B4F86200BC
:104C8000401EA4F862000BE0FDF7C6FC811B4945FD
:104C900003D3B9F1FF3F03D064E0B9F1000F61D055
:104CA000B4F862000028CED142E02068416989074B
:104CB0002ED5B4F8621003290CD9E16B402909D92B
:104CC000E16D09680162E06D001DE065B4F8620005
:104CD000001F1AE0B4F8621001290CD9E16B51B140
:104CE000E06D0188ABF80010E06D801CE065B4F861
:104CF0006200801E09E0E16D097880F82010E06D07
:104D0000401CE065B4F86200401EA4F862000BE0AD
:104D1000FDF782FC811B494503D3B9F1FF3F03D066
:104D200020E0B9F1000F1DD0B4F862000028BCD11A
:104D300000224B4608212046009601F0F1FA28B1E6
:104D4000D4F8840040F02000C4F88400204601F02C
:104D500089FA84F88180D4F8840084F8805080B186
:104D6000012007E7204601F07DFAD4F8841084F88A
:104D7000805041F48071C4F8841084F8818003204D
:104D8000F8E60198F6E6401EB0F1807F10B501D339
:104D9000012010BD4FF0E02460610F21601704F086
:104DA00089FD0020A0610721216110BDF0B590F8B8
:104DB0003C20012A41D0224E012480F83C400222AE
:104DC00080F83D2002681F4D5368B242D2F808C0F7
:104DD00001D0AA4203D14F6823F470033B430F680C
:104DE00023F070031F4357600268B24219D0B2F13A
:104DF000804F16D0144B9A4213D0144B9A4210D0C5
:104E0000134B9A420DD0AA420BD0124B9A4208D0B3
:104E1000114B9A4205D0114B9A4202D0104B9A4244
:104E200004D189682CF0800319439160002180F837
:104E30003D4080F83C100846F0BD0220F0BD000067
:104E40000000014000040140000400400008004050
:104E5000000C0040001800400040014000E000400D
:104E600000E4004010B586B0044614216846FBF704
:104E700097FA0D492068884214D10C48016841F026
:104E8000040101600068002100F004000590022088
:104E900002020092CDE90101CDE903100448694600
:104EA000FDF79AFA06B010BD00040040E044025835
:104EB0000008025870B5044690F83C0000260D46E4
:104EC00001280BD0012084F83C000C2A4AD007DCD2
:104ED00082B1042A20D0082A06D131E0022070BD18
:104EE000102A53D0142A63D00126002084F83C00F5
:104EF000304670BD206801F0B1FC2068816941F046
:104F0000080181612068816921F0040181612068C4
:104F10002A698169114311E0206801F0F3FC2068DF
:104F2000816941F4006181612068816921F48061B7
:104F3000816120682969826942EA01218161D4E79F
:104F4000206801F02BFD2068C16941F00801C161B2
:104F50002068C16921F00401C16120682A69C16922
:104F6000114311E0206801F065FD2068C16941F43A
:104F70000061C1612068C16921F48061C16120685C
:104F80002969C26942EA0121C161AEE7206801F0E6
:104F90008DFD2068416D41F0080141652068416D3B
:104FA00021F00401416520682A69416D114311E037
:104FB000206801F0B5FD2068416D41F40061416554
:104FC0002068416D21F48061416520682969426D46
:104FD00042EA0121416588E710B5040003D094F846
:104FE0003D0010B107E0012010BD002084F83C0016
:104FF000204600F023F8022084F83D002068211D9F
:1050000001F0B2FB012084F8480084F83E0084F8E7
:105010003F0084F8400084F8410084F8420084F89E
:10502000430084F8440084F8450084F8460084F87E
:10503000470084F83D00002010BD000008B500685E
:105040000649884208D10648016841F00201016022
:10505000006800F00200009008BD0000000400405D
:10506000E844025830B504464FF0020269B1042901
:1050700012D0082917D00C291CD0102921D094F85F
:105080004300012824D0012030BD94F83E000128BF
:10509000F9D184F83E201DE094F83F000128F2D1B8
:1050A00084F83F2016E094F840000128EBD184F802
:1050B00040200FE094F841000128E4D184F8412019
:1050C00008E094F842000128DDD184F8422001E094
:1050D00084F843200122206801F0B2FB1E492068B9
:1050E0001E4A1F4B884209D0904207D0984205D0F3
:1050F0001C4DA84202D01C4DA84203D1456C45F47A
:10510000004545642068884218D0B0F1804F15D022
:105110001649884212D0164988420FD01549884254
:105120000CD090420AD01449884207D0984205D04A
:105130001249884202D01249884207D18168114A37
:105140001140062906D0B1F5803F03D0016841F037
:1051500001010160002030BD000001400004014059
:10516000004001400044014000480140000400406C
:1051700000080040000C00400018004000E0004023
:1051800000E400400700010030B590F884100129C8
:1051900018D0012280F884202421C0F88810002231
:1051A000202401680B680D6823F0005325F00105E9
:1051B0000D60426601680B60C0F8884080F884206A
:1051C000104630BD022030BD7047704770B50446B0
:1051D00090F8840001281DD0012284F88420242026
:1051E000C4F8880020680568026822F001020260A5
:1051F0002068826822F060620A438260204601F0E3
:10520000C9FC2268202100201560C4F8881084F8A9
:10521000840070BD022070BD70B5044690F8840013
:1052200001281DD0012284F884202420C4F888009D
:1052300020680568026822F0010202602068826826
:1052400022F060420A438260204601F0A3FC2268FB
:10525000202100201560C4F8881084F8840070BDF7
:10526000022070BD70477047704700002DE9F04183
:1052700007680025044640F60F030226F8693968DE
:10528000BA6818420AD183067ED501F0200302F0E5
:10529000805C53EA0C0377D0616F74E1CF4BDFF889
:1052A00040C3134001EA0C0C53EA0C0C6CD05FEACB
:1052B000C07C0CD05FEAC15C09D54FF0010CC7F887
:1052C00020C0D4F8907047F00107C4F890708707A9
:1052D00009D5D70707D027683E62D4F8906046F01A
:1052E0000406C4F8906046070AD5D60708D0276898
:1052F00004263E62D4F8906046F00206C4F890603E
:1053000006070CD501F020061E4308D026680823A6
:105310003362D4F8903043F00803C4F890300305AA
:105320000BD54B0109D526684FF400633362D4F8DE
:10533000903043F02003C4F89030D4F89030002B24
:105340003DD0800609D501F0200002F080510843CD
:1053500003D0616F09B1204688472168D4F89000D6
:105360008968490602D410F0280F2AD0204601F09F
:10537000F7FC2068806840061ED52068083050E899
:10538000001F21F0400100E021E040E80012002A67
:10539000F3D1D4F8800078B192490165D4F8800047
:1053A000FCF7EEFD00280AD0D4F88000016D00E083
:1053B0002046BDE8F04108472046FFF755FFBDE80D
:1053C000F0812046FFF750FFC4F89050F7E7D4F87B
:1053D0006CC02023BCF1010F7ED15FEAC06C7BD58D
:1053E0005FEAC16C78D5102038622068806840067A
:1053F00073D5D4F880107C4A0868904234D07A4A39
:105400001832904230D0784A303290422CD0764ACE
:105410004832904228D0744A6032904224D0724A76
:105420007832904220D0704A903290421CD06E4A1E
:10543000A832904218D06D4A904215D06B4A18326B
:10544000904211D0694A303290420DD0674A4832BA
:10545000904209D0654A6032904205D0634A783262
:10546000904201D0614A903240680004000CA6D0FE
:10547000B4F85C208242A2D9A4F85E00C869B0F5F5
:10548000807F2FD0216851E8000F20F4807041E820
:105490000002002AF6D12068083050E8001F21F0F1
:1054A000010140E80012002AF5D12068083050E8D8
:1054B000001F21F0400140E80012002AF5D1C4F895
:1054C0008C30E566216851E8000F20F0100041E8BB
:1054D0000002002AF6D101E040E00BE0D4F88000A1
:1054E000FCF79EFB2667B4F85C00B4F85E10401A27
:1054F00081B22FE0B4F85C00B4F85E10B4F85E201E
:10550000401A81B2002AB2D00029B0D0226852E8F5
:10551000000F20F4907042E80007002FF6D1344FBE
:10552000206800F1080050E8002F02EA070240E876
:10553000002CBCF1000FF3D1C4F88C30E566656730
:10554000206850E8002F22F0100240E80023002BD2
:10555000F6D126672046FFF737FE30E7C60209D5A9
:10556000560207D54FF4801038622046BDE8F0415E
:10557000FFF779BE06060AD501F0800602F40002A4
:10558000164304D0A16F00297FF412AF17E742063B
:1055900011D54A060FD52046026852E8001F21F0B7
:1055A000400142E80014002CF6D1C0F8883085672D
:1055B00000F05AF903E7020206D54A0004D5204656
:1055C000BDE8F041FFF74EBEC001C6D50029C4DAE0
:1055D0002046BDE8F041FFF7F8BD000001000010D3
:1055E000200100044B6D000810000240100402402E
:1055F000FEFFFFEF10B5040003D0D4F8880010B10F
:1056000007E0012010BD002084F88400204600F04F
:1056100027F82420C4F888002068016821F00101DF
:105620000160204601F02EFE0128EBD0A06A10B1E7
:10563000204601F0D1FA2068416821F49041416090
:105640002068816821F02A0181602068016841F0AA
:10565000010101602046BDE8104001F021BB0000BF
:1056600010B5B4B0044614212EA8FAF799FEB8215B
:105670006846FAF795FE1D492068884233D100201C
:105680001E9001210446CDE900106846FEF712F88D
:1056900008B1FCF700FA1648016841F010010160FA
:1056A000006800F01000339011481038016841F094
:1056B0000101016000682EAB022100F0010033906F
:1056C0004FF4C060072283E813000A482EA9CDE9F1
:1056D0003142FCF781FE002225201146FDF7D8F863
:1056E0002520FDF7C7F834B010BD000000100140C0
:1056F000F04402580000025830B4D0F88C30202B0F
:1057000002D0022030BC7047A9B1A2B10B4D0024D9
:105710000368C466AB420BD05B681B0208D5046803
:1057200054E8003F43F0806344E80035002DF6D193
:1057300030BC01F095BF0120E4E70000000C0058E8
:1057400070B51F4C00262178C82900D32670006848
:105750001C491D4D88420DD119482178401C027802
:10576000481C6A5416490122207005F52670491C10
:10577000FFF7C2FF21786A1812F8010C0A281DD120
:1057800012F8020C0D2819D1142917D90E4B00203C
:1057900002F8016CC83302F8026C0A182A4412F8A5
:1057A000162C1A54401C1428F7DB0749142207480A
:1057B000C831FAF7DCFD00F0D7FD267070BD00009F
:1057C0000000002400100140280100246C3B01244B
:1057D00010B5D0F88830202B01D0022010BD21B3A5
:1057E0001AB3A0F854200023A0F856204FF4805498
:1057F000426E016521218367C0F89030C0F888109F
:10580000B2F1005F816812D0A14201D1016909B3F0
:1058100011498167026852E8001F41F0800142E8A7
:105820000013002BF6D1002010BD012010BDA142B5
:1058300001D1016961B1094981670168083151E805
:10584000002F42F4000241E80023002BF5D1EAE7E3
:105850000349F1E70349DCE72F7800087D78000869
:10586000C5770008717700087047FEE72DE9F04121
:105870000C4607462DED068B9FED729A9FED728BBD
:105880004D1E052A0FD2DFE802F003124569910090
:105890000020B7EE000A04E007EB8001401C81ED18
:1058A000000AA042F8DBBDEC068BBDE8F0810020C9
:1058B0004FF0FF3111E000BF00EE104A01EB400253
:1058C00007EB8003F8EEC00A00EE102A401CB8EE89
:1058D000C00A80EE201A83ED001AB0EB640FEBDBF8
:1058E0006010F0EE000A12E000EE104A01EB4002F8
:1058F00007EB8003B8EEC01A00EE102A401CB8EE89
:10590000C00AC0EE011A30EEE10A83ED000AA0429F
:10591000EADBC8E700261EE000EE106A00EE905AAF
:10592000B8EEC00AF8EEE00A20EE091A81EE200A6D
:10593000FBF74EFB10EE100AFAF702FF53EC182BA0
:10594000FAF7E0FD53EC182BFAF7D9FDFAF70BFF45
:1059500047F82600761CA642DEDBA4E7002622E0FC
:1059600000EE106A00EE905AB8EEC00AF8EEE00AB7
:1059700020EE091A81EE200AFBF72AFB10EE100A2E
:10598000FAF7DEFE9FED321B53EC112BFAF7BAFD4E
:105990009FED311B53EC112BFAF7B1FDFAF7E3FE43
:1059A00047F82600761CA642DADB7CE7002645E0B5
:1059B00000EE106A9FED2A1A00EE905AB8EEC00A67
:1059C000F8EEE00A20EE011A81EE200AFBF700FB58
:1059D00010EE100AFAF7B4FE9FED221B53EC112BC8
:1059E000FAF790FD00EE106A00EE905A41EC1A0BA7
:1059F000B8EEC00AF8EEE00A20EE091A81EE200A9D
:105A0000FBF7E6FA10EE100AFAF79AFE53EC182BA1
:105A1000FAF778FD9FED151B53EC112BFAF76FFD8C
:105A200053EC1A2BFAF7C7FCFAF79DFEA11B07EB04
:105A3000810141F8040C47F82600761CB6EB640F90
:105A4000B6DB30E7DB0FC940000000000000E03F9C
:105A5000713D0AD7A370DD3F48E17A14AE47E13FBC
:105A6000DB0F49417B14AE47E17AB43FE17A14AED3
:105A700047E1DA3FF0B40023002A18D90A249C46F3
:105A800030253726B4EB107F04D905EB107701F8E9
:105A9000137003E006EB107701F81370000101EBBF
:105AA000430787F801C05B1CDBB29342EAD3F0BC2A
:105AB0007047000070B50F4E00F001024FF48045B2
:105AC000044629463046FCF7A2FD69003046C4F37F
:105AD0004002FCF79CFD084E4021C4F38002304692
